{
  "_format": "hh-sol-artifact-1",
  "contractName": "ScientificJournal",
  "sourceName": "contracts/ScientificJournal.sol",
  "abi": [
    {
      "inputs": [
        {
          "internalType": "address[]",
          "name": "_authors",
          "type": "address[]"
        },
        {
          "internalType": "address[]",
          "name": "_editors",
          "type": "address[]"
        },
        {
          "internalType": "address[]",
          "name": "_reviewers",
          "type": "address[]"
        }
      ],
      "stateMutability": "nonpayable",
      "type": "constructor"
    },
    {
      "anonymous": false,
      "inputs": [
        {
          "indexed": true,
          "internalType": "uint256",
          "name": "articleId",
          "type": "uint256"
        },
        {
          "indexed": true,
          "internalType": "address",
          "name": "buyer",
          "type": "address"
        }
      ],
      "name": "ArticlePurchased",
      "type": "event"
    },
    {
      "anonymous": false,
      "inputs": [
        {
          "indexed": true,
          "internalType": "uint256",
          "name": "articleId",
          "type": "uint256"
        },
        {
          "indexed": false,
          "internalType": "enum ScientificJournal.ArticleStatus",
          "name": "status",
          "type": "uint8"
        }
      ],
      "name": "ArticleReviewed",
      "type": "event"
    },
    {
      "anonymous": false,
      "inputs": [
        {
          "indexed": true,
          "internalType": "uint256",
          "name": "articleId",
          "type": "uint256"
        },
        {
          "indexed": true,
          "internalType": "address",
          "name": "author",
          "type": "address"
        },
        {
          "indexed": false,
          "internalType": "string",
          "name": "title",
          "type": "string"
        }
      ],
      "name": "ArticleSubmitted",
      "type": "event"
    },
    {
      "inputs": [],
      "name": "articleCount",
      "outputs": [
        {
          "internalType": "uint256",
          "name": "",
          "type": "uint256"
        }
      ],
      "stateMutability": "view",
      "type": "function"
    },
    {
      "inputs": [
        {
          "internalType": "uint256",
          "name": "",
          "type": "uint256"
        }
      ],
      "name": "articles",
      "outputs": [
        {
          "internalType": "uint256",
          "name": "id",
          "type": "uint256"
        },
        {
          "internalType": "address",
          "name": "author",
          "type": "address"
        },
        {
          "internalType": "string",
          "name": "title",
          "type": "string"
        },
        {
          "internalType": "string",
          "name": "content",
          "type": "string"
        },
        {
          "internalType": "string",
          "name": "preview",
          "type": "string"
        },
        {
          "internalType": "enum ScientificJournal.ArticleStatus",
          "name": "status",
          "type": "uint8"
        },
        {
          "internalType": "uint256",
          "name": "reviewCount",
          "type": "uint256"
        },
        {
          "internalType": "uint256",
          "name": "reviewCountStatus",
          "type": "uint256"
        },
        {
          "internalType": "address",
          "name": "editor",
          "type": "address"
        },
        {
          "internalType": "uint256",
          "name": "price",
          "type": "uint256"
        },
        {
          "internalType": "string",
          "name": "category",
          "type": "string"
        }
      ],
      "stateMutability": "view",
      "type": "function"
    },
    {
      "inputs": [
        {
          "internalType": "address",
          "name": "",
          "type": "address"
        }
      ],
      "name": "authors",
      "outputs": [
        {
          "internalType": "bool",
          "name": "",
          "type": "bool"
        }
      ],
      "stateMutability": "view",
      "type": "function"
    },
    {
      "inputs": [
        {
          "internalType": "uint256",
          "name": "_articleId",
          "type": "uint256"
        }
      ],
      "name": "buyArticle",
      "outputs": [],
      "stateMutability": "payable",
      "type": "function"
    },
    {
      "inputs": [
        {
          "internalType": "uint256",
          "name": "_articleId",
          "type": "uint256"
        },
        {
          "internalType": "address",
          "name": "_reviewer",
          "type": "address"
        }
      ],
      "name": "defineReviewer",
      "outputs": [],
      "stateMutability": "nonpayable",
      "type": "function"
    },
    {
      "inputs": [
        {
          "internalType": "uint256",
          "name": "_articleId",
          "type": "uint256"
        }
      ],
      "name": "defineStatus",
      "outputs": [
        {
          "internalType": "enum ScientificJournal.ArticleStatus",
          "name": "",
          "type": "uint8"
        }
      ],
      "stateMutability": "view",
      "type": "function"
    },
    {
      "inputs": [
        {
          "internalType": "address",
          "name": "",
          "type": "address"
        }
      ],
      "name": "editors",
      "outputs": [
        {
          "internalType": "bool",
          "name": "",
          "type": "bool"
        }
      ],
      "stateMutability": "view",
      "type": "function"
    },
    {
      "inputs": [],
      "name": "getAllArticles",
      "outputs": [
        {
          "components": [
            {
              "internalType": "uint256",
              "name": "id",
              "type": "uint256"
            },
            {
              "internalType": "address",
              "name": "author",
              "type": "address"
            },
            {
              "internalType": "string",
              "name": "title",
              "type": "string"
            },
            {
              "internalType": "string",
              "name": "content",
              "type": "string"
            },
            {
              "internalType": "string",
              "name": "preview",
              "type": "string"
            },
            {
              "internalType": "enum ScientificJournal.ArticleStatus",
              "name": "status",
              "type": "uint8"
            },
            {
              "components": [
                {
                  "internalType": "address",
                  "name": "reviewer",
                  "type": "address"
                },
                {
                  "internalType": "enum ScientificJournal.ArticleStatus",
                  "name": "review",
                  "type": "uint8"
                }
              ],
              "internalType": "struct ScientificJournal.Review[3]",
              "name": "reviews",
              "type": "tuple[3]"
            },
            {
              "internalType": "uint256",
              "name": "reviewCount",
              "type": "uint256"
            },
            {
              "internalType": "uint256",
              "name": "reviewCountStatus",
              "type": "uint256"
            },
            {
              "internalType": "address[3]",
              "name": "reviewers",
              "type": "address[3]"
            },
            {
              "internalType": "address",
              "name": "editor",
              "type": "address"
            },
            {
              "internalType": "uint256",
              "name": "price",
              "type": "uint256"
            },
            {
              "internalType": "string",
              "name": "category",
              "type": "string"
            }
          ],
          "internalType": "struct ScientificJournal.Article[]",
          "name": "",
          "type": "tuple[]"
        }
      ],
      "stateMutability": "view",
      "type": "function"
    },
    {
      "inputs": [],
      "name": "getArticles",
      "outputs": [
        {
          "components": [
            {
              "internalType": "uint256",
              "name": "id",
              "type": "uint256"
            },
            {
              "internalType": "address",
              "name": "author",
              "type": "address"
            },
            {
              "internalType": "string",
              "name": "title",
              "type": "string"
            },
            {
              "internalType": "string",
              "name": "content",
              "type": "string"
            },
            {
              "internalType": "string",
              "name": "preview",
              "type": "string"
            },
            {
              "internalType": "enum ScientificJournal.ArticleStatus",
              "name": "status",
              "type": "uint8"
            },
            {
              "components": [
                {
                  "internalType": "address",
                  "name": "reviewer",
                  "type": "address"
                },
                {
                  "internalType": "enum ScientificJournal.ArticleStatus",
                  "name": "review",
                  "type": "uint8"
                }
              ],
              "internalType": "struct ScientificJournal.Review[3]",
              "name": "reviews",
              "type": "tuple[3]"
            },
            {
              "internalType": "uint256",
              "name": "reviewCount",
              "type": "uint256"
            },
            {
              "internalType": "uint256",
              "name": "reviewCountStatus",
              "type": "uint256"
            },
            {
              "internalType": "address[3]",
              "name": "reviewers",
              "type": "address[3]"
            },
            {
              "internalType": "address",
              "name": "editor",
              "type": "address"
            },
            {
              "internalType": "uint256",
              "name": "price",
              "type": "uint256"
            },
            {
              "internalType": "string",
              "name": "category",
              "type": "string"
            }
          ],
          "internalType": "struct ScientificJournal.Article[]",
          "name": "",
          "type": "tuple[]"
        }
      ],
      "stateMutability": "view",
      "type": "function"
    },
    {
      "inputs": [
        {
          "internalType": "address",
          "name": "_author",
          "type": "address"
        }
      ],
      "name": "getItemsByAuthor",
      "outputs": [
        {
          "components": [
            {
              "internalType": "uint256",
              "name": "id",
              "type": "uint256"
            },
            {
              "internalType": "address",
              "name": "author",
              "type": "address"
            },
            {
              "internalType": "string",
              "name": "title",
              "type": "string"
            },
            {
              "internalType": "string",
              "name": "content",
              "type": "string"
            },
            {
              "internalType": "string",
              "name": "preview",
              "type": "string"
            },
            {
              "internalType": "enum ScientificJournal.ArticleStatus",
              "name": "status",
              "type": "uint8"
            },
            {
              "components": [
                {
                  "internalType": "address",
                  "name": "reviewer",
                  "type": "address"
                },
                {
                  "internalType": "enum ScientificJournal.ArticleStatus",
                  "name": "review",
                  "type": "uint8"
                }
              ],
              "internalType": "struct ScientificJournal.Review[3]",
              "name": "reviews",
              "type": "tuple[3]"
            },
            {
              "internalType": "uint256",
              "name": "reviewCount",
              "type": "uint256"
            },
            {
              "internalType": "uint256",
              "name": "reviewCountStatus",
              "type": "uint256"
            },
            {
              "internalType": "address[3]",
              "name": "reviewers",
              "type": "address[3]"
            },
            {
              "internalType": "address",
              "name": "editor",
              "type": "address"
            },
            {
              "internalType": "uint256",
              "name": "price",
              "type": "uint256"
            },
            {
              "internalType": "string",
              "name": "category",
              "type": "string"
            }
          ],
          "internalType": "struct ScientificJournal.Article[]",
          "name": "",
          "type": "tuple[]"
        }
      ],
      "stateMutability": "view",
      "type": "function"
    },
    {
      "inputs": [],
      "name": "getReviewerArticles",
      "outputs": [
        {
          "components": [
            {
              "internalType": "uint256",
              "name": "id",
              "type": "uint256"
            },
            {
              "internalType": "address",
              "name": "author",
              "type": "address"
            },
            {
              "internalType": "string",
              "name": "title",
              "type": "string"
            },
            {
              "internalType": "string",
              "name": "content",
              "type": "string"
            },
            {
              "internalType": "string",
              "name": "preview",
              "type": "string"
            },
            {
              "internalType": "enum ScientificJournal.ArticleStatus",
              "name": "status",
              "type": "uint8"
            },
            {
              "components": [
                {
                  "internalType": "address",
                  "name": "reviewer",
                  "type": "address"
                },
                {
                  "internalType": "enum ScientificJournal.ArticleStatus",
                  "name": "review",
                  "type": "uint8"
                }
              ],
              "internalType": "struct ScientificJournal.Review[3]",
              "name": "reviews",
              "type": "tuple[3]"
            },
            {
              "internalType": "uint256",
              "name": "reviewCount",
              "type": "uint256"
            },
            {
              "internalType": "uint256",
              "name": "reviewCountStatus",
              "type": "uint256"
            },
            {
              "internalType": "address[3]",
              "name": "reviewers",
              "type": "address[3]"
            },
            {
              "internalType": "address",
              "name": "editor",
              "type": "address"
            },
            {
              "internalType": "uint256",
              "name": "price",
              "type": "uint256"
            },
            {
              "internalType": "string",
              "name": "category",
              "type": "string"
            }
          ],
          "internalType": "struct ScientificJournal.Article[]",
          "name": "",
          "type": "tuple[]"
        }
      ],
      "stateMutability": "view",
      "type": "function"
    },
    {
      "inputs": [],
      "name": "owner",
      "outputs": [
        {
          "internalType": "address",
          "name": "",
          "type": "address"
        }
      ],
      "stateMutability": "view",
      "type": "function"
    },
    {
      "inputs": [
        {
          "internalType": "uint256",
          "name": "_articleId",
          "type": "uint256"
        },
        {
          "internalType": "enum ScientificJournal.ArticleStatus",
          "name": "_status",
          "type": "uint8"
        }
      ],
      "name": "reviewArticle",
      "outputs": [],
      "stateMutability": "nonpayable",
      "type": "function"
    },
    {
      "inputs": [
        {
          "internalType": "address",
          "name": "",
          "type": "address"
        }
      ],
      "name": "reviewers",
      "outputs": [
        {
          "internalType": "bool",
          "name": "",
          "type": "bool"
        }
      ],
      "stateMutability": "view",
      "type": "function"
    },
    {
      "inputs": [
        {
          "internalType": "string",
          "name": "_title",
          "type": "string"
        },
        {
          "internalType": "string",
          "name": "_content",
          "type": "string"
        },
        {
          "internalType": "string",
          "name": "_preview",
          "type": "string"
        },
        {
          "internalType": "string",
          "name": "_category",
          "type": "string"
        }
      ],
      "name": "submitArticle",
      "outputs": [],
      "stateMutability": "nonpayable",
      "type": "function"
    }
  ],
  "bytecode": "0x60806040523480156200001157600080fd5b50604051620048c7380380620048c7833981810160405281019062000037919062000439565b336000806101000a81548173ffffffffffffffffffffffffffffffffffffffff021916908373ffffffffffffffffffffffffffffffffffffffff16021790555060005b83518110156200010f57600160046000868481518110620000a0576200009f620004f2565b5b602002602001015173ffffffffffffffffffffffffffffffffffffffff1673ffffffffffffffffffffffffffffffffffffffff16815260200190815260200160002060006101000a81548160ff021916908315150217905550808062000106906200055a565b9150506200007a565b5060005b8251811015620001a857600160036000858481518110620001395762000138620004f2565b5b602002602001015173ffffffffffffffffffffffffffffffffffffffff1673ffffffffffffffffffffffffffffffffffffffff16815260200190815260200160002060006101000a81548160ff02191690831515021790555080806200019f906200055a565b91505062000113565b5060005b81518110156200024157600160026000848481518110620001d257620001d1620004f2565b5b602002602001015173ffffffffffffffffffffffffffffffffffffffff1673ffffffffffffffffffffffffffffffffffffffff16815260200190815260200160002060006101000a81548160ff021916908315150217905550808062000238906200055a565b915050620001ac565b50505050620005a7565b6000604051905090565b600080fd5b600080fd5b600080fd5b6000601f19601f8301169050919050565b7f4e487b7100000000000000000000000000000000000000000000000000000000600052604160045260246000fd5b620002af8262000264565b810181811067ffffffffffffffff82111715620002d157620002d062000275565b5b80604052505050565b6000620002e66200024b565b9050620002f48282620002a4565b919050565b600067ffffffffffffffff82111562000317576200031662000275565b5b602082029050602081019050919050565b600080fd5b600073ffffffffffffffffffffffffffffffffffffffff82169050919050565b60006200035a826200032d565b9050919050565b6200036c816200034d565b81146200037857600080fd5b50565b6000815190506200038c8162000361565b92915050565b6000620003a9620003a384620002f9565b620002da565b90508083825260208201905060208402830185811115620003cf57620003ce62000328565b5b835b81811015620003fc5780620003e788826200037b565b845260208401935050602081019050620003d1565b5050509392505050565b600082601f8301126200041e576200041d6200025f565b5b81516200043084826020860162000392565b91505092915050565b60008060006060848603121562000455576200045462000255565b5b600084015167ffffffffffffffff8111156200047657620004756200025a565b5b620004848682870162000406565b935050602084015167ffffffffffffffff811115620004a857620004a76200025a565b5b620004b68682870162000406565b925050604084015167ffffffffffffffff811115620004da57620004d96200025a565b5b620004e88682870162000406565b9150509250925092565b7f4e487b7100000000000000000000000000000000000000000000000000000000600052603260045260246000fd5b7f4e487b7100000000000000000000000000000000000000000000000000000000600052601160045260246000fd5b6000819050919050565b6000620005678262000550565b91507fffffffffffffffffffffffffffffffffffffffffffffffffffffffffffffffff82036200059c576200059b62000521565b5b600182019050919050565b61431080620005b76000396000f3fe6080604052600436106100e85760003560e01c806379ae9c911161008a578063bf9c500111610059578063bf9c5001146102d5578063cd52844d14610312578063edcfafe61461034f578063f7cbb1b214610396576100e8565b806379ae9c91146102195780638a96d240146102425780638da5cb5b1461027f578063b44d310b146102aa576100e8565b8063414e28b0116100c6578063414e28b01461016f57806347c0d1131461019a5780636529f44a146101c3578063733e1200146101ee576100e8565b8063060266c1146100ed578063137d269f1461012a5780631cc4baa814610153575b600080fd5b3480156100f957600080fd5b50610114600480360381019061010f919061303d565b6103d3565b60405161012191906130e1565b60405180910390f35b34801561013657600080fd5b50610151600480360381019061014c919061315a565b61048a565b005b61016d6004803603810190610168919061303d565b610860565b005b34801561017b57600080fd5b50610184610c43565b60405161019191906131a9565b60405180910390f35b3480156101a657600080fd5b506101c160048036038101906101bc919061330a565b610c49565b005b3480156101cf57600080fd5b506101d8610f78565b6040516101e591906137e5565b60405180910390f35b3480156101fa57600080fd5b5061020361154a565b60405161021091906137e5565b60405180910390f35b34801561022557600080fd5b50610240600480360381019061023b919061382c565b611bcc565b005b34801561024e57600080fd5b506102696004803603810190610264919061386c565b611ecc565b60405161027691906137e5565b60405180910390f35b34801561028b57600080fd5b50610294612554565b6040516102a191906138a8565b60405180910390f35b3480156102b657600080fd5b506102bf612578565b6040516102cc91906137e5565b60405180910390f35b3480156102e157600080fd5b506102fc60048036038101906102f7919061386c565b612ae5565b60405161030991906138de565b60405180910390f35b34801561031e57600080fd5b506103396004803603810190610334919061386c565b612b05565b60405161034691906138de565b60405180910390f35b34801561035b57600080fd5b506103766004803603810190610371919061303d565b612b25565b60405161038d9b9a99989796959493929190613943565b60405180910390f35b3480156103a257600080fd5b506103bd60048036038101906103b8919061386c565b612dec565b6040516103ca91906138de565b60405180910390f35b6000806001600084815260200190815260200160002090506000805b600381101561046d576002600381111561040c5761040b61306a565b5b83600601826003811061042257610421613a0a565b5b0160000160149054906101000a900460ff1660038111156104465761044561306a565b5b0361045a57818061045690613a68565b9250505b808061046590613a68565b9150506103ef565b50600281101561047e576003610481565b60025b92505050919050565b600360003373ffffffffffffffffffffffffffffffffffffffff1673ffffffffffffffffffffffffffffffffffffffff16815260200190815260200160002060009054906101000a900460ff16610516576040517f08c379a000000000000000000000000000000000000000000000000000000000815260040161050d90613afc565b60405180910390fd5b6000600160008481526020019081526020016000209050600060038111156105415761054061306a565b5b8160050160009054906101000a900460ff1660038111156105655761056461306a565b5b146105a5576040517f08c379a000000000000000000000000000000000000000000000000000000000815260040161059c90613b68565b60405180910390fd5b600260008373ffffffffffffffffffffffffffffffffffffffff1673ffffffffffffffffffffffffffffffffffffffff16815260200190815260200160002060009054906101000a900460ff16610631576040517f08c379a000000000000000000000000000000000000000000000000000000000815260040161062890613bd4565b60405180910390fd5b6003816009015410610678576040517f08c379a000000000000000000000000000000000000000000000000000000000815260040161066f90613c40565b60405180910390fd5b600073ffffffffffffffffffffffffffffffffffffffff1681600e0160009054906101000a900473ffffffffffffffffffffffffffffffffffffffff1673ffffffffffffffffffffffffffffffffffffffff1603610714573381600e0160006101000a81548173ffffffffffffffffffffffffffffffffffffffff021916908373ffffffffffffffffffffffffffffffffffffffff1602179055505b3373ffffffffffffffffffffffffffffffffffffffff1681600e0160009054906101000a900473ffffffffffffffffffffffffffffffffffffffff1673ffffffffffffffffffffffffffffffffffffffff16146107a6576040517f08c379a000000000000000000000000000000000000000000000000000000000815260040161079d90613cac565b60405180910390fd5b8181600b018260090154600381106107c1576107c0613a0a565b5b0160006101000a81548173ffffffffffffffffffffffffffffffffffffffff021916908373ffffffffffffffffffffffffffffffffffffffff1602179055506002816009015414610813576000610816565b60015b8160050160006101000a81548160ff0219169083600381111561083c5761083b61306a565b5b021790555080600901600081548092919061085690613a68565b9190505550505050565b60006001600083815260200190815260200160002090506002600381111561088b5761088a61306a565b5b8160050160009054906101000a900460ff1660038111156108af576108ae61306a565b5b146108ef576040517f08c379a00000000000000000000000000000000000000000000000000000000081526004016108e690613d18565b60405180910390fd5b80600f0154341015610936576040517f08c379a000000000000000000000000000000000000000000000000000000000815260040161092d90613d84565b60405180910390fd5b6000600882600f01546109499190613dd3565b90508160010160009054906101000a900473ffffffffffffffffffffffffffffffffffffffff1673ffffffffffffffffffffffffffffffffffffffff166108fc600284600f015461099a9190613dd3565b9081150290604051600060405180830381858888f193505050501580156109c5573d6000803e3d6000fd5b50600073ffffffffffffffffffffffffffffffffffffffff1682600e0160009054906101000a900473ffffffffffffffffffffffffffffffffffffffff1673ffffffffffffffffffffffffffffffffffffffff1614610a8a5781600e0160009054906101000a900473ffffffffffffffffffffffffffffffffffffffff1673ffffffffffffffffffffffffffffffffffffffff166108fc829081150290604051600060405180830381858888f19350505050158015610a88573d6000803e3d6000fd5b505b60005b6003811015610b9357600073ffffffffffffffffffffffffffffffffffffffff1683600b018260038110610ac457610ac3613a0a565b5b0160009054906101000a900473ffffffffffffffffffffffffffffffffffffffff1673ffffffffffffffffffffffffffffffffffffffff1614610b805782600b018160038110610b1757610b16613a0a565b5b0160009054906101000a900473ffffffffffffffffffffffffffffffffffffffff1673ffffffffffffffffffffffffffffffffffffffff166108fc839081150290604051600060405180830381858888f19350505050158015610b7e573d6000803e3d6000fd5b505b8080610b8b90613a68565b915050610a8d565b50600560003373ffffffffffffffffffffffffffffffffffffffff1673ffffffffffffffffffffffffffffffffffffffff1681526020019081526020016000208390806001815401808255809150506001900390600052602060002001600090919091909150553373ffffffffffffffffffffffffffffffffffffffff16837f43abda1a0ff58d699e515686089f4e045d53c035184eb326f0c9e0ce8aa12fe360405160405180910390a3505050565b60065481565b600460003373ffffffffffffffffffffffffffffffffffffffff1673ffffffffffffffffffffffffffffffffffffffff16815260200190815260200160002060009054906101000a900460ff16610cd5576040517f08c379a0000000000000000000000000000000000000000000000000000000008152600401610ccc90613e50565b60405180910390fd5b600060016000600654815260200190815260200160002090506006548160000181905550338160010160006101000a81548173ffffffffffffffffffffffffffffffffffffffff021916908373ffffffffffffffffffffffffffffffffffffffff16021790555084816002019081610d4d919061407c565b5083816003019081610d5f919061407c565b5082816004019081610d71919061407c565b5060008160050160006101000a81548160ff02191690836003811115610d9a57610d9961306a565b5b0217905550660d80147225800081600f018190555081816010019081610dc0919061407c565b5060005b6003811015610f07576040518060400160405280600073ffffffffffffffffffffffffffffffffffffffff16815260200160016003811115610e0957610e0861306a565b5b815250826006018260038110610e2257610e21613a0a565b5b0160008201518160000160006101000a81548173ffffffffffffffffffffffffffffffffffffffff021916908373ffffffffffffffffffffffffffffffffffffffff16021790555060208201518160000160146101000a81548160ff02191690836003811115610e9557610e9461306a565b5b0217905550905050600082600b018260038110610eb557610eb4613a0a565b5b0160006101000a81548173ffffffffffffffffffffffffffffffffffffffff021916908373ffffffffffffffffffffffffffffffffffffffff1602179055508080610eff90613a68565b915050610dc4565b503373ffffffffffffffffffffffffffffffffffffffff166006547fd0916480432272b76a4b68ea5188a0910ac3c6da56a6808330eeedb5546a94e287604051610f51919061414e565b60405180910390a360066000815480929190610f6c90613a68565b91905055505050505050565b60606000600560003373ffffffffffffffffffffffffffffffffffffffff1673ffffffffffffffffffffffffffffffffffffffff16815260200190815260200160002090506000818054905067ffffffffffffffff811115610fdd57610fdc6131df565b5b60405190808252806020026020018201604052801561101657816020015b611003612eb0565b815260200190600190039081610ffb5790505b50905060005b8280549050811015611541576001600084838154811061103f5761103e613a0a565b5b90600052602060002001548152602001908152602001600020604051806101a0016040529081600082015481526020016001820160009054906101000a900473ffffffffffffffffffffffffffffffffffffffff1673ffffffffffffffffffffffffffffffffffffffff1673ffffffffffffffffffffffffffffffffffffffff1681526020016002820180546110d490613e9f565b80601f016020809104026020016040519081016040528092919081815260200182805461110090613e9f565b801561114d5780601f106111225761010080835404028352916020019161114d565b820191906000526020600020905b81548152906001019060200180831161113057829003601f168201915b5050505050815260200160038201805461116690613e9f565b80601f016020809104026020016040519081016040528092919081815260200182805461119290613e9f565b80156111df5780601f106111b4576101008083540402835291602001916111df565b820191906000526020600020905b8154815290600101906020018083116111c257829003601f168201915b505050505081526020016004820180546111f890613e9f565b80601f016020809104026020016040519081016040528092919081815260200182805461122490613e9f565b80156112715780601f1061124657610100808354040283529160200191611271565b820191906000526020600020905b81548152906001019060200180831161125457829003601f168201915b505050505081526020016005820160009054906101000a900460ff16600381111561129f5761129e61306a565b5b60038111156112b1576112b061306a565b5b815260200160068201600380602002604051908101604052809291906000905b82821015611387578382016040518060400160405290816000820160009054906101000a900473ffffffffffffffffffffffffffffffffffffffff1673ffffffffffffffffffffffffffffffffffffffff1673ffffffffffffffffffffffffffffffffffffffff1681526020016000820160149054906101000a900460ff1660038111156113625761136161306a565b5b60038111156113745761137361306a565b5b81525050815260200190600101906112d1565b50505050815260200160098201548152602001600a8201548152602001600b8201600380602002604051908101604052809291908260038015611415576020028201915b8160009054906101000a900473ffffffffffffffffffffffffffffffffffffffff1673ffffffffffffffffffffffffffffffffffffffff16815260200190600101908083116113cb575b50505050508152602001600e820160009054906101000a900473ffffffffffffffffffffffffffffffffffffffff1673ffffffffffffffffffffffffffffffffffffffff1673ffffffffffffffffffffffffffffffffffffffff168152602001600f820154815260200160108201805461148e90613e9f565b80601f01602080910402602001604051908101604052809291908181526020018280546114ba90613e9f565b80156115075780601f106114dc57610100808354040283529160200191611507565b820191906000526020600020905b8154815290600101906020018083116114ea57829003601f168201915b50505050508152505082828151811061152357611522613a0a565b5b6020026020010181905250808061153990613a68565b91505061101c565b50809250505090565b6060600260003373ffffffffffffffffffffffffffffffffffffffff1673ffffffffffffffffffffffffffffffffffffffff16815260200190815260200160002060009054906101000a900460ff166115d8576040517f08c379a00000000000000000000000000000000000000000000000000000000081526004016115cf90613afc565b60405180910390fd5b600080600090505b60065481101561162d576116066001600083815260200190815260200160002033612e0c565b1561161a57818061161690613a68565b9250505b808061162590613a68565b9150506115e0565b5060008167ffffffffffffffff81111561164a576116496131df565b5b60405190808252806020026020018201604052801561168357816020015b611670612eb0565b8152602001906001900390816116685790505b509050600080600090505b600654811015611bc2576116b46001600083815260200190815260200160002033612e0c565b15611baf5760016000828152602001908152602001600020604051806101a0016040529081600082015481526020016001820160009054906101000a900473ffffffffffffffffffffffffffffffffffffffff1673ffffffffffffffffffffffffffffffffffffffff1673ffffffffffffffffffffffffffffffffffffffff16815260200160028201805461174890613e9f565b80601f016020809104026020016040519081016040528092919081815260200182805461177490613e9f565b80156117c15780601f10611796576101008083540402835291602001916117c1565b820191906000526020600020905b8154815290600101906020018083116117a457829003601f168201915b505050505081526020016003820180546117da90613e9f565b80601f016020809104026020016040519081016040528092919081815260200182805461180690613e9f565b80156118535780601f1061182857610100808354040283529160200191611853565b820191906000526020600020905b81548152906001019060200180831161183657829003601f168201915b5050505050815260200160048201805461186c90613e9f565b80601f016020809104026020016040519081016040528092919081815260200182805461189890613e9f565b80156118e55780601f106118ba576101008083540402835291602001916118e5565b820191906000526020600020905b8154815290600101906020018083116118c857829003601f168201915b505050505081526020016005820160009054906101000a900460ff1660038111156119135761191261306a565b5b60038111156119255761192461306a565b5b815260200160068201600380602002604051908101604052809291906000905b828210156119fb578382016040518060400160405290816000820160009054906101000a900473ffffffffffffffffffffffffffffffffffffffff1673ffffffffffffffffffffffffffffffffffffffff1673ffffffffffffffffffffffffffffffffffffffff1681526020016000820160149054906101000a900460ff1660038111156119d6576119d561306a565b5b60038111156119e8576119e761306a565b5b8152505081526020019060010190611945565b50505050815260200160098201548152602001600a8201548152602001600b8201600380602002604051908101604052809291908260038015611a89576020028201915b8160009054906101000a900473ffffffffffffffffffffffffffffffffffffffff1673ffffffffffffffffffffffffffffffffffffffff1681526020019060010190808311611a3f575b50505050508152602001600e820160009054906101000a900473ffffffffffffffffffffffffffffffffffffffff1673ffffffffffffffffffffffffffffffffffffffff1673ffffffffffffffffffffffffffffffffffffffff168152602001600f8201548152602001601082018054611b0290613e9f565b80601f0160208091040260200160405190810160405280929190818152602001828054611b2e90613e9f565b8015611b7b5780601f10611b5057610100808354040283529160200191611b7b565b820191906000526020600020905b815481529060010190602001808311611b5e57829003601f168201915b505050505081525050838380611b9090613a68565b945081518110611ba357611ba2613a0a565b5b60200260200101819052505b8080611bba90613a68565b91505061168e565b5081935050505090565b600260003373ffffffffffffffffffffffffffffffffffffffff1673ffffffffffffffffffffffffffffffffffffffff16815260200190815260200160002060009054906101000a900460ff16611c58576040517f08c379a0000000000000000000000000000000000000000000000000000000008152600401611c4f90613afc565b60405180910390fd5b60008210158015611c6a575060065482105b611ca9576040517f08c379a0000000000000000000000000000000000000000000000000000000008152600401611ca0906141bc565b60405180910390fd5b60026003811115611cbd57611cbc61306a565b5b816003811115611cd057611ccf61306a565b5b1480611cff5750600380811115611cea57611ce961306a565b5b816003811115611cfd57611cfc61306a565b5b145b611d3e576040517f08c379a0000000000000000000000000000000000000000000000000000000008152600401611d3590614228565b60405180910390fd5b611d5a6001600084815260200190815260200160002033612e0c565b611d99576040517f08c379a0000000000000000000000000000000000000000000000000000000008152600401611d90906142ba565b60405180910390fd5b6000600160008481526020019081526020016000209050818160060182600a015460038110611dcb57611dca613a0a565b5b0160000160146101000a81548160ff02191690836003811115611df157611df061306a565b5b021790555060018160050160006101000a81548160ff02191690836003811115611e1e57611e1d61306a565b5b021790555080600a016000815480929190611e3890613a68565b9190505550600381600a015403611ec757611e52836103d3565b8160050160006101000a81548160ff02191690836003811115611e7857611e7761306a565b5b0217905550827f31e78b852d4a965554a9df980cac2d3a43aaa46eed46accd3f87c3211470d5958260050160009054906101000a900460ff16604051611ebe91906130e1565b60405180910390a25b505050565b6060600080600090505b600654811015611f6b578373ffffffffffffffffffffffffffffffffffffffff166001600083815260200190815260200160002060010160009054906101000a900473ffffffffffffffffffffffffffffffffffffffff1673ffffffffffffffffffffffffffffffffffffffff1603611f58578180611f5490613a68565b9250505b8080611f6390613a68565b915050611ed6565b5060008167ffffffffffffffff811115611f8857611f876131df565b5b604051908082528060200260200182016040528015611fc157816020015b611fae612eb0565b815260200190600190039081611fa65790505b509050600080600090505b600654811015612548578573ffffffffffffffffffffffffffffffffffffffff166001600083815260200190815260200160002060010160009054906101000a900473ffffffffffffffffffffffffffffffffffffffff1673ffffffffffffffffffffffffffffffffffffffff16036125355760016000828152602001908152602001600020604051806101a0016040529081600082015481526020016001820160009054906101000a900473ffffffffffffffffffffffffffffffffffffffff1673ffffffffffffffffffffffffffffffffffffffff1673ffffffffffffffffffffffffffffffffffffffff1681526020016002820180546120ce90613e9f565b80601f01602080910402602001604051908101604052809291908181526020018280546120fa90613e9f565b80156121475780601f1061211c57610100808354040283529160200191612147565b820191906000526020600020905b81548152906001019060200180831161212a57829003601f168201915b5050505050815260200160038201805461216090613e9f565b80601f016020809104026020016040519081016040528092919081815260200182805461218c90613e9f565b80156121d95780601f106121ae576101008083540402835291602001916121d9565b820191906000526020600020905b8154815290600101906020018083116121bc57829003601f168201915b505050505081526020016004820180546121f290613e9f565b80601f016020809104026020016040519081016040528092919081815260200182805461221e90613e9f565b801561226b5780601f106122405761010080835404028352916020019161226b565b820191906000526020600020905b81548152906001019060200180831161224e57829003601f168201915b505050505081526020016005820160009054906101000a900460ff1660038111156122995761229861306a565b5b60038111156122ab576122aa61306a565b5b815260200160068201600380602002604051908101604052809291906000905b82821015612381578382016040518060400160405290816000820160009054906101000a900473ffffffffffffffffffffffffffffffffffffffff1673ffffffffffffffffffffffffffffffffffffffff1673ffffffffffffffffffffffffffffffffffffffff1681526020016000820160149054906101000a900460ff16600381111561235c5761235b61306a565b5b600381111561236e5761236d61306a565b5b81525050815260200190600101906122cb565b50505050815260200160098201548152602001600a8201548152602001600b820160038060200260405190810160405280929190826003801561240f576020028201915b8160009054906101000a900473ffffffffffffffffffffffffffffffffffffffff1673ffffffffffffffffffffffffffffffffffffffff16815260200190600101908083116123c5575b50505050508152602001600e820160009054906101000a900473ffffffffffffffffffffffffffffffffffffffff1673ffffffffffffffffffffffffffffffffffffffff1673ffffffffffffffffffffffffffffffffffffffff168152602001600f820154815260200160108201805461248890613e9f565b80601f01602080910402602001604051908101604052809291908181526020018280546124b490613e9f565b80156125015780601f106124d657610100808354040283529160200191612501565b820191906000526020600020905b8154815290600101906020018083116124e457829003601f168201915b50505050508152505083838061251690613a68565b94508151811061252957612528613a0a565b5b60200260200101819052505b808061254090613a68565b915050611fcc565b50819350505050919050565b60008054906101000a900473ffffffffffffffffffffffffffffffffffffffff1681565b6060600060065467ffffffffffffffff811115612598576125976131df565b5b6040519080825280602002602001820160405280156125d157816020015b6125be612eb0565b8152602001906001900390816125b65790505b50905060005b600654811015612add5760016000828152602001908152602001600020604051806101a0016040529081600082015481526020016001820160009054906101000a900473ffffffffffffffffffffffffffffffffffffffff1673ffffffffffffffffffffffffffffffffffffffff1673ffffffffffffffffffffffffffffffffffffffff16815260200160028201805461267090613e9f565b80601f016020809104026020016040519081016040528092919081815260200182805461269c90613e9f565b80156126e95780601f106126be576101008083540402835291602001916126e9565b820191906000526020600020905b8154815290600101906020018083116126cc57829003601f168201915b5050505050815260200160038201805461270290613e9f565b80601f016020809104026020016040519081016040528092919081815260200182805461272e90613e9f565b801561277b5780601f106127505761010080835404028352916020019161277b565b820191906000526020600020905b81548152906001019060200180831161275e57829003601f168201915b5050505050815260200160048201805461279490613e9f565b80601f01602080910402602001604051908101604052809291908181526020018280546127c090613e9f565b801561280d5780601f106127e25761010080835404028352916020019161280d565b820191906000526020600020905b8154815290600101906020018083116127f057829003601f168201915b505050505081526020016005820160009054906101000a900460ff16600381111561283b5761283a61306a565b5b600381111561284d5761284c61306a565b5b815260200160068201600380602002604051908101604052809291906000905b82821015612923578382016040518060400160405290816000820160009054906101000a900473ffffffffffffffffffffffffffffffffffffffff1673ffffffffffffffffffffffffffffffffffffffff1673ffffffffffffffffffffffffffffffffffffffff1681526020016000820160149054906101000a900460ff1660038111156128fe576128fd61306a565b5b60038111156129105761290f61306a565b5b815250508152602001906001019061286d565b50505050815260200160098201548152602001600a8201548152602001600b82016003806020026040519081016040528092919082600380156129b1576020028201915b8160009054906101000a900473ffffffffffffffffffffffffffffffffffffffff1673ffffffffffffffffffffffffffffffffffffffff1681526020019060010190808311612967575b50505050508152602001600e820160009054906101000a900473ffffffffffffffffffffffffffffffffffffffff1673ffffffffffffffffffffffffffffffffffffffff1673ffffffffffffffffffffffffffffffffffffffff168152602001600f8201548152602001601082018054612a2a90613e9f565b80601f0160208091040260200160405190810160405280929190818152602001828054612a5690613e9f565b8015612aa35780601f10612a7857610100808354040283529160200191612aa3565b820191906000526020600020905b815481529060010190602001808311612a8657829003601f168201915b505050505081525050828281518110612abf57612abe613a0a565b5b60200260200101819052508080612ad590613a68565b9150506125d7565b508091505090565b60046020528060005260406000206000915054906101000a900460ff1681565b60036020528060005260406000206000915054906101000a900460ff1681565b60016020528060005260406000206000915090508060000154908060010160009054906101000a900473ffffffffffffffffffffffffffffffffffffffff1690806002018054612b7490613e9f565b80601f0160208091040260200160405190810160405280929190818152602001828054612ba090613e9f565b8015612bed5780601f10612bc257610100808354040283529160200191612bed565b820191906000526020600020905b815481529060010190602001808311612bd057829003601f168201915b505050505090806003018054612c0290613e9f565b80601f0160208091040260200160405190810160405280929190818152602001828054612c2e90613e9f565b8015612c7b5780601f10612c5057610100808354040283529160200191612c7b565b820191906000526020600020905b815481529060010190602001808311612c5e57829003601f168201915b505050505090806004018054612c9090613e9f565b80601f0160208091040260200160405190810160405280929190818152602001828054612cbc90613e9f565b8015612d095780601f10612cde57610100808354040283529160200191612d09565b820191906000526020600020905b815481529060010190602001808311612cec57829003601f168201915b5050505050908060050160009054906101000a900460ff169080600901549080600a01549080600e0160009054906101000a900473ffffffffffffffffffffffffffffffffffffffff169080600f015490806010018054612d6990613e9f565b80601f0160208091040260200160405190810160405280929190818152602001828054612d9590613e9f565b8015612de25780601f10612db757610100808354040283529160200191612de2565b820191906000526020600020905b815481529060010190602001808311612dc557829003601f168201915b505050505090508b565b60026020528060005260406000206000915054906101000a900460ff1681565b600080600090505b6003811015612ea4578273ffffffffffffffffffffffffffffffffffffffff1684600b018260038110612e4a57612e49613a0a565b5b0160009054906101000a900473ffffffffffffffffffffffffffffffffffffffff1673ffffffffffffffffffffffffffffffffffffffff1603612e91576001915050612eaa565b8080612e9c90613a68565b915050612e14565b50600090505b92915050565b604051806101a0016040528060008152602001600073ffffffffffffffffffffffffffffffffffffffff16815260200160608152602001606081526020016060815260200160006003811115612f0957612f0861306a565b5b8152602001612f16612f62565b81526020016000815260200160008152602001612f31612f8f565b8152602001600073ffffffffffffffffffffffffffffffffffffffff16815260200160008152602001606081525090565b60405180606001604052806003905b612f79612fb1565b815260200190600190039081612f715790505090565b6040518060600160405280600390602082028036833780820191505090505090565b6040518060400160405280600073ffffffffffffffffffffffffffffffffffffffff16815260200160006003811115612fed57612fec61306a565b5b81525090565b6000604051905090565b600080fd5b600080fd5b6000819050919050565b61301a81613007565b811461302557600080fd5b50565b60008135905061303781613011565b92915050565b60006020828403121561305357613052612ffd565b5b600061306184828501613028565b91505092915050565b7f4e487b7100000000000000000000000000000000000000000000000000000000600052602160045260246000fd5b600481106130aa576130a961306a565b5b50565b60008190506130bb82613099565b919050565b60006130cb826130ad565b9050919050565b6130db816130c0565b82525050565b60006020820190506130f660008301846130d2565b92915050565b600073ffffffffffffffffffffffffffffffffffffffff82169050919050565b6000613127826130fc565b9050919050565b6131378161311c565b811461314257600080fd5b50565b6000813590506131548161312e565b92915050565b6000806040838503121561317157613170612ffd565b5b600061317f85828601613028565b925050602061319085828601613145565b9150509250929050565b6131a381613007565b82525050565b60006020820190506131be600083018461319a565b92915050565b600080fd5b600080fd5b6000601f19601f8301169050919050565b7f4e487b7100000000000000000000000000000000000000000000000000000000600052604160045260246000fd5b613217826131ce565b810181811067ffffffffffffffff82111715613236576132356131df565b5b80604052505050565b6000613249612ff3565b9050613255828261320e565b919050565b600067ffffffffffffffff821115613275576132746131df565b5b61327e826131ce565b9050602081019050919050565b82818337600083830152505050565b60006132ad6132a88461325a565b61323f565b9050828152602081018484840111156132c9576132c86131c9565b5b6132d484828561328b565b509392505050565b600082601f8301126132f1576132f06131c4565b5b813561330184826020860161329a565b91505092915050565b6000806000806080858703121561332457613323612ffd565b5b600085013567ffffffffffffffff81111561334257613341613002565b5b61334e878288016132dc565b945050602085013567ffffffffffffffff81111561336f5761336e613002565b5b61337b878288016132dc565b935050604085013567ffffffffffffffff81111561339c5761339b613002565b5b6133a8878288016132dc565b925050606085013567ffffffffffffffff8111156133c9576133c8613002565b5b6133d5878288016132dc565b91505092959194509250565b600081519050919050565b600082825260208201905092915050565b6000819050602082019050919050565b61341681613007565b82525050565b6134258161311c565b82525050565b600081519050919050565b600082825260208201905092915050565b60005b8381101561346557808201518184015260208101905061344a565b60008484015250505050565b600061347c8261342b565b6134868185613436565b9350613496818560208601613447565b61349f816131ce565b840191505092915050565b6134b3816130c0565b82525050565b600060039050919050565b600081905092915050565b6000819050919050565b6040820160008201516134ef600085018261341c565b50602082015161350260208501826134aa565b50505050565b600061351483836134d9565b60408301905092915050565b6000602082019050919050565b613536816134b9565b61354081846134c4565b925061354b826134cf565b8060005b8381101561357c5781516135638782613508565b965061356e83613520565b92505060018101905061354f565b505050505050565b600060039050919050565b600081905092915050565b6000819050919050565b60006135b0838361341c565b60208301905092915050565b6000602082019050919050565b6135d281613584565b6135dc818461358f565b92506135e78261359a565b8060005b838110156136185781516135ff87826135a4565b965061360a836135bc565b9250506001810190506135eb565b505050505050565b600061028083016000830151613639600086018261340d565b50602083015161364c602086018261341c565b50604083015184820360408601526136648282613471565b9150506060830151848203606086015261367e8282613471565b915050608083015184820360808601526136988282613471565b91505060a08301516136ad60a08601826134aa565b5060c08301516136c060c086018261352d565b5060e08301516136d461018086018261340d565b506101008301516136e96101a086018261340d565b506101208301516136fe6101c08601826135c9565b5061014083015161371361022086018261341c565b5061016083015161372861024086018261340d565b506101808301518482036102608601526137428282613471565b9150508091505092915050565b600061375b8383613620565b905092915050565b6000602082019050919050565b600061377b826133e1565b61378581856133ec565b935083602082028501613797856133fd565b8060005b858110156137d357848403895281516137b4858261374f565b94506137bf83613763565b925060208a0199505060018101905061379b565b50829750879550505050505092915050565b600060208201905081810360008301526137ff8184613770565b905092915050565b6004811061381457600080fd5b50565b60008135905061382681613807565b92915050565b6000806040838503121561384357613842612ffd565b5b600061385185828601613028565b925050602061386285828601613817565b9150509250929050565b60006020828403121561388257613881612ffd565b5b600061389084828501613145565b91505092915050565b6138a28161311c565b82525050565b60006020820190506138bd6000830184613899565b92915050565b60008115159050919050565b6138d8816138c3565b82525050565b60006020820190506138f360008301846138cf565b92915050565b600082825260208201905092915050565b60006139158261342b565b61391f81856138f9565b935061392f818560208601613447565b613938816131ce565b840191505092915050565b600061016082019050613959600083018e61319a565b613966602083018d613899565b8181036040830152613978818c61390a565b9050818103606083015261398c818b61390a565b905081810360808301526139a0818a61390a565b90506139af60a08301896130d2565b6139bc60c083018861319a565b6139c960e083018761319a565b6139d7610100830186613899565b6139e561012083018561319a565b8181036101408301526139f8818461390a565b90509c9b505050505050505050505050565b7f4e487b7100000000000000000000000000000000000000000000000000000000600052603260045260246000fd5b7f4e487b7100000000000000000000000000000000000000000000000000000000600052601160045260246000fd5b6000613a7382613007565b91507fffffffffffffffffffffffffffffffffffffffffffffffffffffffffffffffff8203613aa557613aa4613a39565b5b600182019050919050565b7f4e6f7420617574686f72697a6564000000000000000000000000000000000000600082015250565b6000613ae6600e836138f9565b9150613af182613ab0565b602082019050919050565b60006020820190508181036000830152613b1581613ad9565b9050919050565b7f496e76616c69642061727469636c652073746174757300000000000000000000600082015250565b6000613b526016836138f9565b9150613b5d82613b1c565b602082019050919050565b60006020820190508181036000830152613b8181613b45565b9050919050565b7f4e6f7420616e20617574686f72697a6564207265766965776572000000000000600082015250565b6000613bbe601a836138f9565b9150613bc982613b88565b602082019050919050565b60006020820190508181036000830152613bed81613bb1565b9050919050565b7f526576696577657273206c696d69742072656163686564000000000000000000600082015250565b6000613c2a6017836138f9565b9150613c3582613bf4565b602082019050919050565b60006020820190508181036000830152613c5981613c1d565b9050919050565b7f4e6f742074686520656469746f72206f6620746869732061727469636c650000600082015250565b6000613c96601e836138f9565b9150613ca182613c60565b602082019050919050565b60006020820190508181036000830152613cc581613c89565b9050919050565b7f41727469636c65206e6f7420617070726f766564000000000000000000000000600082015250565b6000613d026014836138f9565b9150613d0d82613ccc565b602082019050919050565b60006020820190508181036000830152613d3181613cf5565b9050919050565b7f496e73756666696369656e742066756e64730000000000000000000000000000600082015250565b6000613d6e6012836138f9565b9150613d7982613d38565b602082019050919050565b60006020820190508181036000830152613d9d81613d61565b9050919050565b7f4e487b7100000000000000000000000000000000000000000000000000000000600052601260045260246000fd5b6000613dde82613007565b9150613de983613007565b925082613df957613df8613da4565b5b828204905092915050565b7f4e6f7420616e20617574686f72697a656420617574686f720000000000000000600082015250565b6000613e3a6018836138f9565b9150613e4582613e04565b602082019050919050565b60006020820190508181036000830152613e6981613e2d565b9050919050565b7f4e487b7100000000000000000000000000000000000000000000000000000000600052602260045260246000fd5b60006002820490506001821680613eb757607f821691505b602082108103613eca57613ec9613e70565b5b50919050565b60008190508160005260206000209050919050565b60006020601f8301049050919050565b600082821b905092915050565b600060088302613f327fffffffffffffffffffffffffffffffffffffffffffffffffffffffffffffffff82613ef5565b613f3c8683613ef5565b95508019841693508086168417925050509392505050565b6000819050919050565b6000613f79613f74613f6f84613007565b613f54565b613007565b9050919050565b6000819050919050565b613f9383613f5e565b613fa7613f9f82613f80565b848454613f02565b825550505050565b600090565b613fbc613faf565b613fc7818484613f8a565b505050565b5b81811015613feb57613fe0600082613fb4565b600181019050613fcd565b5050565b601f8211156140305761400181613ed0565b61400a84613ee5565b81016020851015614019578190505b61402d61402585613ee5565b830182613fcc565b50505b505050565b600082821c905092915050565b600061405360001984600802614035565b1980831691505092915050565b600061406c8383614042565b9150826002028217905092915050565b6140858261342b565b67ffffffffffffffff81111561409e5761409d6131df565b5b6140a88254613e9f565b6140b3828285613fef565b600060209050601f8311600181146140e657600084156140d4578287015190505b6140de8582614060565b865550614146565b601f1984166140f486613ed0565b60005b8281101561411c578489015182556001820191506020850194506020810190506140f7565b868310156141395784890151614135601f891682614042565b8355505b6001600288020188555050505b505050505050565b60006020820190508181036000830152614168818461390a565b905092915050565b7f496e76616c69642061727469636c652049440000000000000000000000000000600082015250565b60006141a66012836138f9565b91506141b182614170565b602082019050919050565b600060208201905081810360008301526141d581614199565b9050919050565b7f496e76616c696420726576696577000000000000000000000000000000000000600082015250565b6000614212600e836138f9565b915061421d826141dc565b602082019050919050565b6000602082019050818103600083015261424181614205565b9050919050565b7f596f7520646f6e27742068617665207065726d697373696f6e20746f2072657660008201527f69657720746869732061727469636c6500000000000000000000000000000000602082015250565b60006142a46030836138f9565b91506142af82614248565b604082019050919050565b600060208201905081810360008301526142d381614297565b905091905056fea2646970667358221220b84af34e2909c44388b8fadbfa4441a83ae73f0731df4679d88c8abebe58223464736f6c63430008130033",
  "linkReferences": {},
  "deployedLinkReferences": {}
}